{"abi":[{"type":"function","name":"deposit","inputs":[{"name":"amount","type":"uint256","internalType":"uint256"}],"outputs":[],"stateMutability":"nonpayable"},{"type":"function","name":"total","inputs":[],"outputs":[{"name":"","type":"uint256","internalType":"uint256"}],"stateMutability":"view"},{"type":"function","name":"withdraw","inputs":[{"name":"amount","type":"uint256","internalType":"uint256"}],"outputs":[],"stateMutability":"nonpayable"}],"bytecode":{"object":"0x6080604052348015600e575f5ffd5b5061023b8061001c5f395ff3fe608060405234801561000f575f5ffd5b506004361061003f575f3560e01c80632ddbd13a146100435780632e1a7d4d14610061578063b6b55f251461007d575b5f5ffd5b61004b610099565b6040516100589190610100565b60405180910390f35b61007b60048036038101906100769190610147565b61009e565b005b61009760048036038101906100929190610147565b6100ce565b005b5f5481565b5f8103156100cb57805f5410156100b3575f5ffd5b805f5f8282546100c3919061019f565b925050819055505b50565b805f5f8282546100de91906101d2565b9250508190555050565b5f819050919050565b6100fa816100e8565b82525050565b5f6020820190506101135f8301846100f1565b92915050565b5f5ffd5b610126816100e8565b8114610130575f5ffd5b50565b5f813590506101418161011d565b92915050565b5f6020828403121561015c5761015b610119565b5b5f61016984828501610133565b91505092915050565b7f4e487b71000000000000000000000000000000000000000000000000000000005f52601160045260245ffd5b5f6101a9826100e8565b91506101b4836100e8565b92508282039050818111156101cc576101cb610172565b5b92915050565b5f6101dc826100e8565b91506101e7836100e8565b92508282019050808211156101ff576101fe610172565b5b9291505056fea264697066735822122027fc1042831ff5495b2e3a2091a288b4487faecded29c2b903e3885daea1f81564736f6c63430008210033","linkReferences":{}},"methodIdentifiers":{"deposit(uint256)":"b6b55f25","total()":"2ddbd13a","withdraw(uint256)":"2e1a7d4d"},"id":20}